{
  "contractName": "SimpleTransfer",
  "abi": [
    {
      "constant": true,
      "inputs": [
        {
          "name": "_oldState",
          "type": "bytes"
        },
        {
          "name": "_newState",
          "type": "bytes"
        },
        {
          "name": "_witness",
          "type": "bytes"
        }
      ],
      "name": "validStateTransition",
      "outputs": [
        {
          "name": "",
          "type": "bool"
        }
      ],
      "payable": false,
      "stateMutability": "pure",
      "type": "function"
    }
  ],
  "bytecode": "0x608060405234801561001057600080fd5b50610734806100206000396000f3fe608060405260043610610041576000357c0100000000000000000000000000000000000000000000000000000000900463ffffffff16806312f7d17314610046575b600080fd5b34801561005257600080fd5b5061006d60048036036100689190810190610486565b610083565b60405161007a919061059a565b60405180910390f35b600061008d6102ef565b61009685610109565b90506100a0610335565b6100a984610176565b90506000858051906020012090506000836000015173ffffffffffffffffffffffffffffffffffffffff166100e28385600001516101ae565b73ffffffffffffffffffffffffffffffffffffffff16149050809450505050509392505050565b6101116102ef565b600080838060200190516101289190810190610409565b9150915060408051908101604052808373ffffffffffffffffffffffffffffffffffffffff1681526020018273ffffffffffffffffffffffffffffffffffffffff1681525092505050919050565b61017e610335565b6060828060200190516101949190810190610445565b905060206040519081016040528082815250915050919050565b600080600080604185511415156101fa576040517f08c379a00000000000000000000000000000000000000000000000000000000081526004016101f1906105b5565b60405180910390fd5b6020850151925060408501519150606085015160001a9050601b8160ff16101561022557601b810190505b601b8160ff161415801561023d5750601c8160ff1614155b1561027d576040517f08c379a0000000000000000000000000000000000000000000000000000000008152600401610274906105d5565b60405180910390fd5b60018682858560405160008152602001604052604051808581526020018460ff1660ff1681526020018381526020018281526020019450505050506020604051602081039080840390855afa1580156102da573d6000803e3d6000fd5b50505060206040510351935050505092915050565b6040805190810160405280600073ffffffffffffffffffffffffffffffffffffffff168152602001600073ffffffffffffffffffffffffffffffffffffffff1681525090565b602060405190810160405280606081525090565b600061035582516106a6565b905092915050565b600082601f830112151561037057600080fd5b815161038361037e82610622565b6105f5565b9150808252602083016020830185838301111561039f57600080fd5b6103aa8382846106c7565b50505092915050565b600082601f83011215156103c657600080fd5b81356103d96103d48261064e565b6105f5565b915080825260208301602083018583830111156103f557600080fd5b6104008382846106b8565b50505092915050565b6000806040838503121561041c57600080fd5b600061042a85828601610349565b925050602061043b85828601610349565b9150509250929050565b60006020828403121561045757600080fd5b600082015167ffffffffffffffff81111561047157600080fd5b61047d8482850161035d565b91505092915050565b60008060006060848603121561049b57600080fd5b600084013567ffffffffffffffff8111156104b557600080fd5b6104c1868287016103b3565b935050602084013567ffffffffffffffff8111156104de57600080fd5b6104ea868287016103b3565b925050604084013567ffffffffffffffff81111561050757600080fd5b610513868287016103b3565b9150509250925092565b6105268161067a565b82525050565b6000601982527f496e76616c6964207369676e6174757265206c656e6774682e000000000000006020830152604082019050919050565b6000601a82527f496e76616c6964207369676e61747572652076657273696f6e2e0000000000006020830152604082019050919050565b60006020820190506105af600083018461051d565b92915050565b600060208201905081810360008301526105ce8161052c565b9050919050565b600060208201905081810360008301526105ee81610563565b9050919050565b6000604051905081810181811067ffffffffffffffff8211171561061857600080fd5b8060405250919050565b600067ffffffffffffffff82111561063957600080fd5b601f19601f8301169050602081019050919050565b600067ffffffffffffffff82111561066557600080fd5b601f19601f8301169050602081019050919050565b60008115159050919050565b600073ffffffffffffffffffffffffffffffffffffffff82169050919050565b60006106b182610686565b9050919050565b82818337600083830152505050565b60005b838110156106e55780820151818401526020810190506106ca565b838111156106f4576000848401525b5050505056fea265627a7a72305820d07bb995a66e0e53215483799ca6a76f18dfed6f185167a62119a7cec87f8a156c6578706572696d656e74616cf50037",
  "source": "pragma solidity ^0.5.0;\npragma experimental ABIEncoderV2;\n\nimport './ECRecovery.sol';\n\ncontract SimpleTransfer {\n    struct StateObject {\n        address owner;\n        address predicate;\n    }\n    \n    struct Witness {\n        bytes signature;\n    }\n\n    function bytesToStateObject(\n        bytes memory _state\n    ) internal pure returns (StateObject memory) {\n        (address owner, address predicate) = abi.decode(_state, (address, address));\n        return StateObject(\n            owner,\n            predicate\n        );\n    }\n\n    function bytesToWitness(\n        bytes memory _witness\n    ) internal pure returns (Witness memory) {\n        bytes memory signature = abi.decode(_witness, (bytes));\n        return Witness(\n            signature\n        );\n    }\n\n    function validStateTransition(\n        bytes memory _oldState,\n        bytes memory _newState,\n        bytes memory _witness\n    ) public pure returns (bool) {\n        StateObject memory oldState = bytesToStateObject(_oldState);\n        Witness memory witness = bytesToWitness(_witness);\n\n        // Check the transaction signature.\n        bytes32 txhash = keccak256(_newState);\n        bool validSignature = (ECRecovery.recover(txhash, witness.signature) == oldState.owner);\n        \n        return validSignature;\n    }\n}\n",
  "sourcePath": "/home/k/Projects/pg/plasma-wtf/contracts/SimpleTransfer.sol",
  "compiler": {
    "name": "solc",
    "version": "0.5.0+commit.1d4f565a.Emscripten.clang"
  },
  "schemaVersion": "3.0.2",
  "updatedAt": "2019-02-16T18:25:30.693Z",
  "devdoc": {
    "methods": {}
  },
  "userdoc": {
    "methods": {}
  }
}