{
  "contractName": "SimpleRangeTransfer",
  "abi": [
    {
      "constant": false,
      "inputs": [
        {
          "components": [
            {
              "name": "state",
              "type": "bytes"
            },
            {
              "name": "rangeStart",
              "type": "uint256"
            },
            {
              "name": "rangeEnd",
              "type": "uint256"
            },
            {
              "name": "exitHeight",
              "type": "uint256"
            },
            {
              "name": "exitTime",
              "type": "uint256"
            }
          ],
          "name": "_exit",
          "type": "tuple"
        },
        {
          "name": "_witness",
          "type": "bytes"
        }
      ],
      "name": "canCancel",
      "outputs": [
        {
          "name": "",
          "type": "bool"
        }
      ],
      "payable": false,
      "stateMutability": "nonpayable",
      "type": "function"
    },
    {
      "constant": false,
      "inputs": [
        {
          "components": [
            {
              "name": "state",
              "type": "bytes"
            },
            {
              "name": "rangeStart",
              "type": "uint256"
            },
            {
              "name": "rangeEnd",
              "type": "uint256"
            },
            {
              "name": "exitHeight",
              "type": "uint256"
            },
            {
              "name": "exitTime",
              "type": "uint256"
            }
          ],
          "name": "_exit",
          "type": "tuple"
        },
        {
          "name": "_witness",
          "type": "bytes"
        }
      ],
      "name": "canStartExit",
      "outputs": [
        {
          "name": "",
          "type": "bool"
        }
      ],
      "payable": false,
      "stateMutability": "nonpayable",
      "type": "function"
    },
    {
      "constant": false,
      "inputs": [
        {
          "components": [
            {
              "name": "state",
              "type": "bytes"
            },
            {
              "name": "rangeStart",
              "type": "uint256"
            },
            {
              "name": "rangeEnd",
              "type": "uint256"
            },
            {
              "name": "exitHeight",
              "type": "uint256"
            },
            {
              "name": "exitTime",
              "type": "uint256"
            }
          ],
          "name": "_exit",
          "type": "tuple"
        },
        {
          "name": "_witness",
          "type": "bytes"
        }
      ],
      "name": "finalizeExit",
      "outputs": [],
      "payable": true,
      "stateMutability": "payable",
      "type": "function"
    }
  ],
  "bytecode": "0x608060405234801561001057600080fd5b50610abf806100206000396000f3fe608060405260043610610057576000357c0100000000000000000000000000000000000000000000000000000000900463ffffffff1680635d94a4ab1461005c578063cd2b371814610099578063f7cf1d48146100d6575b600080fd5b34801561006857600080fd5b50610083600480360361007e919081019061077b565b6100f2565b60405161009091906108da565b60405180910390f35b3480156100a557600080fd5b506100c060048036036100bb919081019061077b565b6101e3565b6040516100cd91906108da565b60405180910390f35b6100f060048036036100eb919081019061077b565b61023e565b005b60006100fc6104d4565b610105836102ab565b905061010f6104f6565b61011c85600001516102f8565b9050606082600001518360200151876060015160405160200161014193929190610935565b60405160208183030381529060405290506000818051906020012090506000836000015173ffffffffffffffffffffffffffffffffffffffff16610189838760400151610360565b73ffffffffffffffffffffffffffffffffffffffff1614905060006101b686602001518a604001516104a1565b6101c887600001518b602001516104ba565b1090508180156101d55750805b965050505050505092915050565b60006101ed6104f6565b6101fa84600001516102f8565b90506000816000015173ffffffffffffffffffffffffffffffffffffffff163273ffffffffffffffffffffffffffffffffffffffff16149050809250505092915050565b6102466104f6565b61025383600001516102f8565b90506000816000015190508073ffffffffffffffffffffffffffffffffffffffff166108fc349081150290604051600060405180830381858888f193505050501580156102a4573d6000803e3d6000fd5b5050505050565b6102b36104d4565b6000806060848060200190516102cc91908101906107e7565b925092509250606060405190810160405280848152602001838152602001828152509350505050919050565b6103006104f6565b6060828060200190516103169190810190610727565b50905060008180602001905161032f91908101906106fe565b90506020604051908101604052808273ffffffffffffffffffffffffffffffffffffffff1681525092505050919050565b600080600080604185511415156103ac576040517f08c379a00000000000000000000000000000000000000000000000000000000081526004016103a3906108f5565b60405180910390fd5b6020850151925060408501519150606085015160001a9050601b8160ff1610156103d757601b810190505b601b8160ff16141580156103ef5750601c8160ff1614155b1561042f576040517f08c379a000000000000000000000000000000000000000000000000000000000815260040161042690610915565b60405180910390fd5b60018682858560405160008152602001604052604051808581526020018460ff1660ff1681526020018381526020018281526020019450505050506020604051602081039080840390855afa15801561048c573d6000803e3d6000fd5b50505060206040510351935050505092915050565b60008183106104b057816104b2565b825b905092915050565b6000818310156104ca57816104cc565b825b905092915050565b6060604051908101604052806000815260200160008152602001606081525090565b602060405190810160405280600073ffffffffffffffffffffffffffffffffffffffff1681525090565b600061052c8251610a27565b905092915050565b600082601f830112151561054757600080fd5b813561055a61055582610999565b61096c565b9150808252602083016020830185838301111561057657600080fd5b610581838284610a43565b50505092915050565b600082601f830112151561059d57600080fd5b81516105b06105ab82610999565b61096c565b915080825260208301602083018583830111156105cc57600080fd5b6105d7838284610a52565b50505092915050565b600082601f83011215156105f357600080fd5b8135610606610601826109c5565b61096c565b9150808252602083016020830185838301111561062257600080fd5b61062d838284610a43565b50505092915050565b600060a0828403121561064857600080fd5b61065260a061096c565b9050600082013567ffffffffffffffff81111561066e57600080fd5b61067a84828501610534565b600083015250602061068e848285016106d6565b60208301525060406106a2848285016106d6565b60408301525060606106b6848285016106d6565b60608301525060806106ca848285016106d6565b60808301525092915050565b60006106e28235610a39565b905092915050565b60006106f68251610a39565b905092915050565b60006020828403121561071057600080fd5b600061071e84828501610520565b91505092915050565b6000806040838503121561073a57600080fd5b600083015167ffffffffffffffff81111561075457600080fd5b6107608582860161058a565b925050602061077185828601610520565b9150509250929050565b6000806040838503121561078e57600080fd5b600083013567ffffffffffffffff8111156107a857600080fd5b6107b485828601610636565b925050602083013567ffffffffffffffff8111156107d157600080fd5b6107dd858286016105e0565b9150509250929050565b6000806000606084860312156107fc57600080fd5b600061080a868287016106ea565b935050602061081b868287016106ea565b925050604084015167ffffffffffffffff81111561083857600080fd5b6108448682870161058a565b9150509250925092565b610857816109f1565b82525050565b6000601982527f496e76616c6964207369676e6174757265206c656e6774682e000000000000006020830152604082019050919050565b6000601a82527f496e76616c6964207369676e61747572652076657273696f6e2e0000000000006020830152604082019050919050565b6108d481610a1d565b82525050565b60006020820190506108ef600083018461084e565b92915050565b6000602082019050818103600083015261090e8161085d565b9050919050565b6000602082019050818103600083015261092e81610894565b9050919050565b600060608201905061094a60008301866108cb565b61095760208301856108cb565b61096460408301846108cb565b949350505050565b6000604051905081810181811067ffffffffffffffff8211171561098f57600080fd5b8060405250919050565b600067ffffffffffffffff8211156109b057600080fd5b601f19601f8301169050602081019050919050565b600067ffffffffffffffff8211156109dc57600080fd5b601f19601f8301169050602081019050919050565b60008115159050919050565b600073ffffffffffffffffffffffffffffffffffffffff82169050919050565b6000819050919050565b6000610a32826109fd565b9050919050565b6000819050919050565b82818337600083830152505050565b60005b83811015610a70578082015181840152602081019050610a55565b83811115610a7f576000848401525b5050505056fea265627a7a7230582043ecf2c7673c144a153cd25a90ba60e243134f1233594005e32afd4cc731a0956c6578706572696d656e74616cf50037",
  "source": "pragma solidity ^0.5.0;\npragma experimental ABIEncoderV2;\n\nimport './IPredicate.sol';\nimport './ECRecovery.sol';\nimport './Math.sol';\n\ncontract SimpleRangeTransfer is IPredicate {\n    /*\n     * Structs\n     */\n\n    struct StateData {\n        address owner;\n    }\n\n    struct Witness {\n        uint256 rangeStart;\n        uint256 rangeEnd;\n        bytes signature;\n    }\n\n\n    /*\n     * Public functions\n     */\n\n    function canCancel(\n        Exit memory _exit,\n        bytes memory _witness\n    ) public returns (bool) {\n        Witness memory witness = bytesToWitness(_witness);\n        StateData memory state = bytesToStateData(_exit.state);\n\n        // Check transaction signature.\n        bytes memory message = abi.encode(witness.rangeStart, witness.rangeEnd, _exit.exitHeight);\n        bytes32 messageHash = keccak256(message);\n        bool validSignature = ECRecovery.recover(messageHash, witness.signature) == state.owner;\n\n        // Check transaction bounds.\n        bool validBounds = Math.max(witness.rangeStart, _exit.rangeStart) < Math.min(witness.rangeEnd, _exit.rangeEnd);\n\n        // TODO: Check inclusion.\n\n        return validSignature && validBounds;\n    }\n\n    function canStartExit(\n        Exit memory _exit,\n        bytes memory _witness\n    ) public returns (bool) {\n        StateData memory state = bytesToStateData(_exit.state);\n\n        // Check valid transaction sender.\n        bool validSender = (tx.origin == state.owner);\n\n        return validSender;\n    }\n\n    function finalizeExit(\n        Exit memory _exit,\n        bytes memory _witness\n    ) public payable {\n        StateData memory state = bytesToStateData(_exit.state);\n        \n        // Forward all money to the owner.\n        address payable owner = address(uint160(state.owner));\n        owner.transfer(msg.value);\n    }\n\n\n    /*\n     * Internal functions\n     */\n\n    function bytesToWitness(\n        bytes memory _witness\n    ) internal pure returns (Witness memory) {\n        (uint256 rangeStart, uint256 rangeEnd, bytes memory signature) = abi.decode(_witness, (uint256, uint256, bytes));\n        return Witness(\n            rangeStart,\n            rangeEnd,\n            signature\n        );\n    }\n\n    function bytesToStateData(\n        bytes memory _state\n    ) internal pure returns (StateData memory) {\n        (bytes memory parameters, ) = abi.decode(_state, (bytes, address));\n        address owner = abi.decode(parameters, (address));\n        return StateData(\n            owner\n        );\n    }\n}\n",
  "sourcePath": "/home/k/Projects/pg/plasma-wtf/contracts/SimpleRangeTransfer.sol",
  "compiler": {
    "name": "solc",
    "version": "0.5.0+commit.1d4f565a.Emscripten.clang"
  },
  "schemaVersion": "3.0.2",
  "updatedAt": "2019-02-16T21:54:01.498Z",
  "devdoc": {
    "methods": {}
  },
  "userdoc": {
    "methods": {}
  }
}